:100000000C9434000C9453000C9451000C94510047
:100010000C9451000C9451000C9451000C9451001C
:100020000C9451000C9451000C9451000C9451000C
:100030000C9451000C9451000C9451000C945100FC
:100040000C9451000C9451000C9451000C945100EC
:100050000C9451000C9451000C9451000C945100DC
:100060000C9451000C94510011241FBECFEFD8E026
:10007000DEBFCDBF11E0A0E0B1E0EAEAF6E002C0E9
:1000800005900D92A231B107D9F721E0A2E1B1E0CC
:1000900001C01D92A831B207E1F70E9472010C94D1
:1000A00053030C9400001F920F920FB60F9211246D
:1000B0002F933F934F935F936F937F938F939F9370
:1000C000AF93BF93CF93DF93EF93FF938091120190
:1000D00090911301019709F044C010928100C4E887
:1000E000D0E06881798180E090E00E94A202609374
:1000F000140170931501809316019093170160917C
:10010000140170911501809116019091170123E35C
:1001100033E349E654E40E940E02609314017093A5
:10012000150180931601909317016091140170914D
:100130001501809116019091170120E030E040E810
:100140005FE30E94AA0160931401709315018093EC
:1001500016019093170119821882109213011092C0
:1001600012018091120190911301892B59F4E1E859
:10017000F0E080818160808381E090E090931301C2
:1001800080931201FF91EF91DF91CF91BF91AF91D9
:100190009F918F917F916F915F914F913F912F919F
:1001A0000F900FBE0F901F901895E1ECF0E080814A
:1001B000886180831092C50087E68093C40008950B
:1001C000E0ECF0E0908195FFFDCF8093C6000895AC
:1001D0001F93CF93DF93EC018881843251F010E0BC
:1001E0000E94E0001F5FFE01E10FF11D808184325B
:1001F000B9F7DF91CF911F9108950F931F93CF937C
:10020000DF938C018A30910530F08E36910508F528
:10021000CAE0D0E034C09C01ADECBCEC0E944403C9
:100220009695879596958795969587959C01220F2B
:10023000331F880F991F880F991F880F991F820FEE
:10024000931F9801281B390BC901805D0E94E000B3
:1002500044C0CAE0D0E0CE01880F991FCC0FDD1F4B
:10026000CC0FDD1FCC0FDD1FC80FD91FC801BE0189
:100270000E9430036B30710570F7209771F1C8014F
:10028000BE010E943003AB019B01ADECBCEC0E94AF
:100290004403BC0176956795769567957695679545
:1002A000CB01880F991F660F771F660F771F660FA8
:1002B000771F680F791F461B570B9E010E9444034E
:1002C000EC01D695C795D695C795D695C79580E389
:1002D000840F0E94E000209791F6DF91CF911F914B
:1002E0000F9108950E94D5008AB180698AB9E9E624
:1002F000F0E08081856080838DB383608DBB109238
:10030000800078942FEF83ED90E32150804090405F
:10031000E1F700C000005F9A87EC90E00197F1F7E9
:1003200000C000005F9880E091E00E94E8006091CA
:1003300014017091150180911601909117010E948E
:100340007602CB010E94FD008DE091E00E94E80062
:10035000D9CF5058BB27AA270ED048C139D130F089
:100360003ED120F031F49F3F11F41EF42EC10EF463
:10037000E095E7FB24C1E92F4AD180F3BA17620761
:1003800073078407950718F071F49EF562C10EF4A7
:10039000E0950B2EBA2FA02D0B01B90190010C0195
:1003A000CA01A0011124FF27591B99F0593F50F4AD
:1003B000503E68F11A16F040A22F232F342F442705
:1003C000585FF3CF469537952795A795F0405395FD
:1003D000C9F77EF41F16BA0B620B730B840BBAF0CD
:1003E0009150A1F0FF0FBB1F661F771F881FC2F738
:1003F0000EC0BA0F621F731F841F48F4879577954C
:100400006795B795F7959E3F08F0B3CF9395880F02
:1004100008F09927EE0F9795879508950CD0E6C0C0
:10042000DED040F0D5D030F021F45F3F19F0C7C0E6
:10043000511110C1CAC0EBD098F39923C9F35523C9
:10044000B1F3951B550BBB27AA27621773078407C7
:1004500038F09F5F5F4F220F331F441FAA1FA9F37D
:1004600033D00E2E3AF0E0E830D091505040E6956F
:10047000001CCAF729D0FE2F27D0660F771F881FD0
:10048000BB1F261737074807AB07B0E809F0BB0BBF
:10049000802DBF01FF2793585F4F2AF09E3F5105E3
:1004A00068F08DC0D7C05F3FECF3983EDCF38695D3
:1004B00077956795B795F7959F5FC9F7880F911D59
:1004C0009695879597F90895E1E0660F771F881F45
:1004D000BB1F621773078407BA0720F0621B730BF8
:1004E000840BBA0BEE1F88F7E095089598D088F03A
:1004F0009F5790F0B92F9927B751A0F0D1F0660F10
:10050000771F881F991F1AF0BA95C9F712C0B1302A
:1005100081F09FD0B1E008959CC0672F782F882785
:10052000B85F39F0B93FCCF3869577956795B39569
:10053000D9F73EF490958095709561957F4F8F4FD8
:100540009F4F0895E89409C097FB3EF490958095DD
:10055000709561957F4F8F4F9F4F9923A9F0F92F89
:1005600096E9BB279395F695879577956795B79507
:10057000F111F8CFFAF4BB0F11F460FF1BC06F5FED
:100580007F4F8F4F9F4F16C0882311F096E911C0FF
:10059000772321F09EE8872F762F05C0662371F020
:1005A00096E8862F70E060E02AF09A95660F771F34
:1005B000881FDAF7880F9695879597F9089597F928
:1005C0009F6780E870E060E008959FEF80EC0895F9
:1005D00000240A9416161706180609060895002422
:1005E0000A9412161306140605060895092E03949C
:1005F000000C11F4882352F0BB0F40F4BF2B11F410
:1006000060FF04C06F5F7F4F8F4F9F4F089557FD6E
:100610009058440F551F59F05F3F71F04795880F70
:1006200097FB991F61F09F3F79F087950895121607
:1006300013061406551FF2CF4695F1DF08C01616B3
:1006400017061806991FF1CF869571056105089464
:100650000895E894BB2766277727CB0197F908957B
:10066000AA1BBB1B51E107C0AA1FBB1FA617B707D8
:1006700010F0A61BB70B881F991F5A95A9F78095F4
:100680009095BC01CD010895A29FB001B39FC00118
:10069000A39F700D811D1124911DB29F700D811DAE
:0A06A0001124911D0895F894FFCF76
:1006AA0044697374616E6365203D202400636D0D97
:0206BA0024001A
:00000001FF
